:100000000C94E3020C94A70A0C942A030C942A0380
:100010000C942A030C942A030C942A030C942A03AC
:100020000C942A030C942A030C94F1210C94C422FE
:100030000C949C180C942A030C942A030C942A0305
:100040000C942A030C942A030C942A030C942A037C
:100050000C942A030C9404190C942A030C942A037C
:100060000C942A030C942A030C942A030C942A035C
:100070000C942A030C942A030C942A030C942A034C
:100080000C942A030C942A030C942A030C942A033C
:100090000C942A030C942A030C942A030C942A032C
:1000A0000C942A030C942A030C942A0302E07A038A
:1000B000E05B002B0014001A00080015001700294F
:1000C0006104001600070009000A0087621D001B7A
:1000D000000600190005005045516452644F6891B4
:1000E000432C412A00130012000C0018001C0028A9
:1000F0004233000F000E000D000B002D00380037BA
:10010000003600100011004F0052005100500090C6
:10011000442C410000000000004D000000000000E1
:10012000004A0000004C004E0000000000000000EB
:1001300000000000004B0000000000000000000074
:100140000001002A00003000000000000000000054
:100150000000004F0052005100500000000000005D
:10016000000030000000000000000000000000005F
:10017000000100000000000000F00000000000008E
:10018000000000F200F100F3000000010000000098
:10019000000000000000000000010000000000005E
:1001A0000000000000AE00000000000000000001A0
:1001B000000000AB00A900AA00AC0000000000A8ED
:1001C00000A906AA060000000000000000000000D0
:1001D00000000000001E022F002002210222020067
:1001E000002E0289022D0289002F0200000000006B
:1001F00000000000000000005C00000000000001A2
:10020000000000010034022602250223022E0032E3
:1002100002340032003000300224028702380237F4
:1002200002360233021F02000000003202300200D8
:100230000001002B001E001F0020002100220000F2
:10024000001E001F0020002100220001000000000D
:1002500000000000000000005C010001000100013E
:1002600000010001002700260025002400230001D2
:1002700000270026002500240023000100010001C2
:100280000001003400000000000000000000000138
:10029000000100005C0100010001000100010001FB
:1002A000003A003B003C003D003E0001000100011F
:1002B0000001000100010001000100010001000136
:1002C00000010001000100010001000100010044E3
:1002D0000043004200410040003F00450001000192
:1002E0000001000100010001000100010001000106
:1002F00000010000000000000000002A2B28000080
:1003000000000000000000000000000000002900C4
:100310000000002C1E1F20212223242526343336E2
:100320002D3738271E1F202122232425263433363B
:100330002D37382F0405060708090A0B0C0D0E0F80
:10034000101112131415161718191A1B1C1D3089B9
:10035000312E872F0405060708090A0B0C0D0E0F16
:10036000101112131415161718191A1B1C1D308999
:10037000312E4C00000000000000000000000000D2
:10038000000000000000000000000000000000006D
:100390000000000001010101010101010101010052
:1003A000000000000000000000000000000000014C
:1003B000010101000101010101010101010101012E
:1003C000010101010101010101010101010100001F
:1003D000000001010000000000000000000000001B
:1003E000000000000000000000000000000001010B
:1003F00001010000000000000000000000000000FB
:1004000000000000000000000000000000000000EC
:1004100000000000000000000000000000000000DC
:1004200000000000000000000000000000000000CC
:1004300000000000000000000000000000000000BC
:1004400000000000000000000000000000000000AC
:10045000000000000000000000000000000000009C
:10046000000000000000000000000000000000008C
:100470000000000403300000001C034C0065007401
:100480000073002000530070006C006900740020AD
:1004900000760032000000160357006F006F0074F2
:1004A000007000610074006F006F007400000004B1
:1004B00003090409023B00020100A0FA090400003C
:1004C000010301010009211101000122400007057B
:1004D000810308000A09040100010300000009214A
:1004E000110100012285000705820320000A120184
:1004F000100100000008EDFE603001000102030160
:1005000005010902A10185020901A10005091901DE
:1005100029051500250195057501810295017503D1
:1005200081010501093009311581257F9502750882
:10053000810609381581257F950175088106050C0E
:100540000A38021581257F950175088106C0C0050E
:10055000010980A10185031601002603001A81000C
:100560002A8300751095018100C0050C0901A101C5
:100570008504160100269C021A01002A9C027510AF
:1005800095018100C005010906A101050719E029AF
:10059000E71500250195087501810295017508810F
:1005A0000105081901290595057501910295017547
:1005B0000391010507190029FF150026FF00950684
:1005C00075088100C00011241FBECFEFDAE0DEBF46
:1005D000CDBF04B603FE27C08091FB019091FC01C2
:1005E000A091FD01B091FE018730904BA740B04B28
:1005F000D1F41092FB011092FC011092FD011092B7
:10060000FE0114BE84B7877F84BF0FB6F894A89507
:1006100080916000886180936000109260000FBE3E
:10062000E0E0F8E3099511E0A0E0B1E0E4EDF9E4E1
:1006300002C005900D92A433B107D9F721E0A4E3DD
:10064000B1E001C01D92AB3FB207E1F70E94201F4D
:100650000C94E8240C9400000C949107611104C0E0
:100660008CEA90E00E94DE0390E080E0089581E053
:10067000089581E008950C9439031F93CF93DF937D
:1006800000D000D01F92CDB7DEB749835A836B8369
:1006900020915F0189819A8121111BC06623A9F0F5
:1006A0000E944716182F682F89819A810E94EB15A6
:1006B00069817A81812F0F900F900F900F900F908A
:1006C000DF91CF911F910C9416050E941B16182FD5
:1006D000EFCF0E94471669817A81EDCFFC014081FE
:1006E00051816281738184810C943D031F93CF9368
:1006F000DF9390E0FC01ED50FD4F1491FC01ED58AB
:10070000FC4FD4918D509C4FFC01C491DD2319F016
:1007100081EE0E94900CCC2319F086EE0E94900C82
:10072000812F0E94D30DCC2319F086EE0E947D0DFF
:10073000DD2331F081EEDF91CF911F910C947D0D7F
:10074000DF91CF911F910895FF920F931F93CF9345
:10075000DF938C01F62EF8018491882349F1E8019A
:100760002196813049F4FE011491812F0E94900C52
:10077000812F0E947D0D06C0823089F4FE01849194
:100780000E94900C8E010F5F1F4F8F2D815018F328
:10079000EFE9FFE03197F1F700C00000F7CF8330B9
:1007A00019F4FE018491E5CF0E947603E801EACFB7
:1007B000DF91CF911F910F91FF90089560E00C940D
:1007C000A4030E948E17811102C00E9408180C9485
:1007D0002C030C94930708950C94EB030C94EC03F6
:1007E00008950E94C2100E94F0032FEF84E39CE062
:1007F000215080409040E1F700C0000087E797E774
:1008000090930108809300080C942A190F931F936A
:10081000CF93DF938C010E946E03EC01B8010E941C
:100820003B03882309F450C0B801CE010E94B809E7
:10083000882309F449C0C5318CE5D807A0F4C2303B
:10084000ECE5DE0708F061C0C115FCE5DF07B9F192
:10085000C130DC4509F43EC0C801DF91CF911F9142
:100860000F910C943703CC3DECE5DE0709F43FC053
:10087000C0F4C631DC4581F70E94DC16F801928194
:10088000992309F4C8C08A7A91E009F490E0909322
:1008900034018111BEC089E20E94B7160E942B1755
:1008A00013C0CD3DECE5DE0751F1CE3DDC45A1F6B0
:1008B000F8018281882341F00E94081805C0F801E0
:1008C000828181110E94F10380E0DF91CF911F911D
:1008D0000F910895F80182818823B1F39091CB01A3
:1008E000892F8E7F90FF81608093CB01EDCFF8013F
:1008F0008281882349F380E00E94B91FE5CFF80187
:100900008281882309F382E0F7CFF801828188236E
:1009100009F4A2CF0E948E17811102C00E9408180C
:100920000E94A11790E09093ED018093EC01FE01ED
:10093000E350FC458091EC018160E231F105C8F49F
:10094000EC55FB4F0C948C24B604C204C604CA04B4
:10095000CE04D204D604DA04DE04E204E604EA0497
:10096000EE04F204F604FA04FE0402058091EC01A0
:1009700082608093EC018091EC010E94A5170E9497
:10098000C210A2CF8091EC018460F3CF8091EC0182
:100990008860EFCF8091EC018061EBCF8091EC011A
:1009A0008062E7CF8091EC018064E3CF8091EC011D
:1009B0008068DFCF8091EC018460EACF8091EC0108
:1009C0008E7FD7CF8091EC018D7FD3CF8091EC01CA
:1009D0008B7FCFCF8091EC01877FCBCF8091EC01D3
:1009E0008F7EC7CF8091EC018F7DC3CF8091EC01CA
:1009F0008F7BBFCF8091EC018F77BBCF8091EC01D3
:100A00008B7FEACF9091EC01892F97FB87F9805873
:100A1000B0CF85E341CF80913401811104C089E2D8
:100A20000E94BE163BCF85E3FBCF0895972F70E061
:100A300026E0929F600D711D1124FB0190E3899FB8
:100A4000E00DF11D1124EE0FFF1FED54FF4F8591B6
:100A500094910895FC01EE0FFF1FED58FB4F859117
:100A600094910895CF93DF930E9416050E94EE069D
:100A7000EC018115904508F043C0C11580E4D8070A
:100A800008F017C1C83ED10528F5C03ED10508F0D1
:100A9000A3C0C83AD10580F4C53AD10508F092C088
:100AA000C130D10509F498C020F0C430D10508F058
:100AB00093C0D0E0C0E090C0CF3BD10508F490C017
:100AC000CE01805C9109C03CD10598F30E942A05B3
:100AD000EC0182C0C11520E2D20750F4C11581E0BB
:100AE000D80708F079C0C03FD10518F3D06574C0AD
:100AF000C11520E3D20708F0D2C0CE019F70E6CF27
:100B0000C11585E5D80760F5C11524E5D20708F0C1
:100B1000FEC0C11582E5D80750F4C11521E5D20702
:100B200008F4CAC0DC2FCC27C16FD06A55C09C2FF7
:100B3000969596959E0123703327C115D34508F0ED
:100B4000D7C0C1E0D0E002C0CC0FDD1F2A95E2F78C
:100B500020E2929FC0011124C82BD92BDC683CC035
:100B6000C11529E5D207A8F4C11588E5D80708F012
:100B7000D3C0C11526E5D20708F09BCF8C2F0E9469
:100B80006E07C82FD0E0DC2FCC27CC27DF71D062D6
:100B900023C0C1158AE5D80708F4C3C0CE0190561A
:100BA0008115904208F085CF8D2F8F710E946E07BE
:100BB000DD27D06290E0982F882788279F71C82B67
:100BC000D92B0AC0C53AD10509F4BDC0C63AD10532
:100BD00009F4BCC0C3E8D0E4CE01DF91CF91089501
:100BE000C83AD10509F4B5C0C93AD10509F4B4C071
:100BF000CA3AD10509F4B3C0CB3AD10509F4B2C061
:100C0000CC3AD10509F4B1C0CB3BD10509F4B0C051
:100C1000CC3BD10509F4AFC0CD3AD10509F4AEC043
:100C2000C03BD10509F4ADC0CE3AD10509F4ACC042
:100C3000CF3AD10509F4ABC0C13BD10509F4AAC034
:100C4000C23BD10509F4A9C0C33BD10509F4A8C032
:100C5000C43BD10509F4A7C0C53BD10509F4A6C022
:100C6000C63BD10509F4A5C0C73BD10509F4A4C012
:100C7000C83BD10509F4A3C0C93BD10509F4A2C002
:100C8000CD3BD10509F4A1C0CE3BD10509F4A0C0EC
:100C9000CA3BD10509F09FC0CAE2D6E49DCFCE0180
:100CA0009927D3FF03C0EC01D86C96CFEC01D06C30
:100CB00093CFDF70D06A90CFCE01F4E09695879500
:100CC000FA95E1F783709C2F937021E030E002C029
:100CD000220F331F9A95E2F73C68382BC695C695CC
:100CE000C37080E2C89FE0011124C22BD32B74CFC4
:100CF000C1E0D0E002C0CC0FDD1F2A95E2F720E270
:100D0000929FC0011124C82BD92BDA6865CFDC2F44
:100D1000CC27C46FD06A60CFDC2FCC27C06FD06ADD
:100D20005BCF8C2F8F700E946E0734E0D695C795ED
:100D30003A95E1F7CF70D0E0DC2FCC27D06A8F70E6
:100D4000806EC82B49CFC1E8D0E446CFC2E8D0E4DA
:100D500043CFC2EED4E440CFC9EED4E43DCFCAEED7
:100D6000D4E43ACFC5EBD4E437CFC6EBD4E434CFE8
:100D7000C3EBD4E431CFC4EBD4E42ECFC7EBD4E43F
:100D80002BCFCCECD4E428CFCDECD4E425CFC3E8F2
:100D9000D5E422CFCAE8D5E41FCFC2E9D5E41CCF01
:100DA000C4E9D5E419CFC1E2D6E416CFC3E2D6E454
:100DB00013CFC4E2D6E410CFC5E2D6E40DCFC6E22D
:100DC000D6E40ACFC7E2D6E407CFCFE6D4E404CF17
:100DD000C0E7D4E401CFC0E0D4E4FECE8238910570
:100DE00049F1B0F48133910509F45CC048F48932CB
:100DF000910509F452C08A32910509F458C008954A
:100E00008533910509F444C08933910599F008951B
:100E1000833E910531F138F4803E910591F0823E98
:100E20009105B1F00895863E910511F1873E910537
:100E300041F108952091EC012370C9F080EE90E01B
:100E400008952091EC0120FF12C089E390E00895FD
:100E50002091EC0122FF0BC024FF2EC090E080E027
:100E600008952091EC0122FD2AC024FDF7CF0895BA
:100E70002091EC0123FFFBCF24FDF0CF87EE90E023
:100E800008952091EC0123FFF0CF86EE90E00895C5
:100E90002091EC0125FD16C008952091EC0125FD5F
:100EA00014C008952091EC0126FD12C008952091F0
:100EB000EC0126FD10C0089583EE90E0089582EEC7
:100EC00090E0089589E290E0089585E390E0089528
:100ED0008AE290E0089581E390E0C9CF9091EC011F
:100EE00092FF06C0282F2871283069F4877F84601C
:100EF00093FF06C0282F2871283161F4877E846112
:100F000094FD877E0895282F2471243089F78B7FE4
:100F10008860EECF282F2471243191F78B7E886171
:100F2000EFCF089508950C9492070895E82FF0E00C
:100F3000E65CFE4F808108950895CF93DF93809102
:100F4000CB01836088608093CB0180910001809108
:100F5000000194E0811190E09093E50184E0891B09
:100F60008093E401A2E2B1E046E251E0C1E0D0E0CA
:100F70008D91E82FE295EF70F0E061A18F709E01F6
:100F800001C0220F8A95EAF7922F9095962391A39C
:100F900082A1822B82A34A175B0751F7ACE1B1E033
:100FA00061E070E08D91E82FE295EF70F0E041A1F3
:100FB0008F709B0101C0220F8A95EAF7922F9095BE
:100FC000942391A382A1822B82A381E0A232B8074D
:100FD00049F710923A0110923B0110923C01109295
:100FE0003D0110923E0110923F011092400110927B
:100FF000410184E00E94B008DF91CF910C94E1039D
:10100000AF92BF92CF92DF92EF92FF920F931F9316
:10101000CF93DF93A6E3B1E042E251E0A12C61E07F
:1010200070E03C911C92EA018991AE01E82FE295B3
:10103000EF70F0E091A18F708B0101C0000F8A95D5
:10104000EAF7892F802B81A392A1B02EB0949B2127
:1010500092A3D0EADA95F1F7DCE1ED2ED1E0FD2E96
:1010600090E080E0E70129917E01C22EC294CFE09A
:10107000CC22D12CE601C8A0D12C2F7002C0D5946F
:10108000C7942A95E2F7C0FC36C06B01082E01C058
:10109000CC0C0A94EAF72C912C292C9301968630DB
:1010A000910501F781A18B2181A382A1802B82A3CD
:1010B00081E09C91931301C080E0A82A1196D1E0B1
:1010C00046325D0709F0ADCF6091E50170E0665CE6
:1010D0007E4F2A2D44E086E391E00E94B1088A2DDC
:1010E000DF91CF911F910F91FF90EF90DF90CF9004
:1010F000BF90AF900895C12CCECFCF930E9400082F
:10110000C82F0E94E608882309F18091E40190E04D
:10111000865C9E4F0E941C09811115C0809135018B
:101120008F5F80933501863048F0E091E401F0E074
:10113000E65CFE4F10821182128213820E94E90344
:101140008C2FCF91089510923501F8CF8091E50151
:1011500090E0865C9E4F0E9435090E949507F0CF73
:101160000895FF920F931F93CF93DF938C01F62E78
:10117000D72FC42F222349F081E0809344010E949D
:10118000CE189093430180934201809144018823BB
:10119000A1F080914201909143010E94DA180697D4
:1011A00060F0EF2DFD2FD801D0E0CD01801B910B19
:1011B0008C179D0744F010924401DF91CF911F914D
:1011C0000F91FF9008958D918193EFCF809145010C
:1011D000811110C08091D80080618093D8008AE18D
:1011E0008A95F1F700C08091D90080FD0AC082E0A5
:1011F0008093450181E090914501913009F080E0B4
:10120000089581E0F5CF0C94E6080E9403098093CD
:1012100000010E94E60881110C9410090C94160933
:1012200061E070E081E091E00C94580A61E070E0C8
:1012300081E091E00C945F0ACF93DF93D82FC92F00
:101240000E94F90A009779F4ED2FFC2FDC01A95BCD
:10125000BE4F2C912193019684309105B9F781E01E
:10126000DF91CF91089580E0FBCF30E020E0FC01DA
:101270004191CF01F901E95BFE4F40832F5F3F4F62
:1012800024303105A1F708950F931F93CF93DF9377
:10129000C62FD42F022FFC0182818823C9F06093CE
:1012A0004D010E94CE1890934C0180934B0180E237
:1012B0008C0F883008F057C0C77081E001C0880FDC
:1012C000CA95EAF7DF91CF911F910F910C94E60D2B
:1012D00010914D01161335C080914B0190914C0136
:1012E0000E94DA18883C910560F5C0E2CD0F1D1709
:1012F000B9F080E2810F883040F4177081E001C0BE
:10130000880F1A95EAF70E94ED0DC83028F581E0A4
:101310009D2F977001C0880F9A95EAF70E94E60DFD
:10132000802F0E94D30DC830F0F4D77081E001C047
:10133000880FDA95EAF7DF91CF911F910F910C9406
:10134000ED0D80E28C0F883070F4C77081E001C031
:10135000880FCA95EAF7EFCF802FDF91CF911F91C9
:101360000F910C94D30DDF91CF911F910F910895A0
:101370009C01CB01203F4CE5340731F190F4283D2E
:10138000FCE53F07E9F0293D4CE5340769F1273DCD
:101390003C4579F426E241EE61EE0E94440980E08A
:1013A0000895223FFCE53F07B9F090F0233F3C450C
:1013B000B9F0FC0182818823D1F010924D0108958B
:1013C00027E245EE65EEE9CF26E241EE60EEE5CF9D
:1013D00027E245EE64EEE1CF26E241EE62EEDDCF9C
:1013E00027E245EE66EED9CF28E241E0EBCF81E07F
:1013F00008958EE1489B02C08150E1F7489BFECFE3
:101400000895589880E28A95F1F7589A0895FC015A
:101410003BE03A95F1F798E020E080E031E040E1F0
:101420004A95F1F7880F489B02C08160232742E06C
:101430004A95F1F7000040E14A95F1F7915079F7AC
:1014400090E19A95F1F799B132E03A95F1F7000001
:1014500040E14A95F1F7917092272081920F908395
:101460000895EF92FF920F931F93CF93DF931F92F4
:10147000CDB7DEB719828C017C01E60EF11C0E158A
:101480001F0561F481E09981911180E00F90DF9157
:10149000CF911F910F91FF90EF9008950E94F9094D
:1014A000CE0101960E94070AF80181938F01E7CFD0
:1014B00090934F0180934E01509A589A08959093BB
:1014C0004F0180934E015098589AE89AE9E6F0E06F
:1014D00080818C7F808308956150770B91E001C0FB
:1014E000990F6A95EAF720E031E0911108C02223B4
:1014F00091F0589A80E28A95F1F758980895492F0B
:10150000482339F0589A232740E24A95F1F79695F7
:10151000ECCF5898F9CF5898EDCFFF920F931F93C7
:10152000CF93DF93EC018C01060F111DC017D1077B
:1015300031F4DF91CF911F910F91FF900895F990B1
:101540000E94010A68E08F2D0E946C0AEFCF1F9263
:101550000F920FB60F9211242F933F934F935F93E7
:101560006F937F938F939F93AF93BF93CF93DF93AB
:10157000EF93FF935898509AC0914E01D0914F012C
:101580006D81662321F08E819F810E948D0A0E94C9
:10159000010A80E18A95F1F758985098589A80E1AD
:1015A0008A95F1F76A81662309F18B819C810E94FB
:1015B000310AE881F981882311F088E001C082E0D6
:1015C00080830E94F909FF91EF91DF91CF91BF9144
:1015D000AF919F918F917F916F915F914F913F91CB
:1015E0002F910F900FBE0F901F901895E881F981F1
:1015F000E4CFCF93DF93C0914E01D0914F01F89487
:10160000509A589885E08A95F1F700005098589ABA
:1016100080E28A95F1F7489B0CC0509A589AE8816D
:10162000F98181E08083789481E090E0DF91CF912F
:1016300008956D81662381F08E819F810E94310A19
:1016400081110AC0509A589AE881F98182E080831A
:10165000789482E090E0EACF0E94F90980E28A95CE
:10166000F1F75898509A80E18A95F1F76A816623DC
:1016700021F08B819C810E948D0A0E94010AE881E1
:10168000F9811082789490E080E0D0CF909355015A
:10169000809354010895E0915401F09155013097E1
:1016A00021F00190F081E02D099480E00895E0910F
:1016B0005401F0915501309721F00280F381E02D23
:1016C00009940895E0915401F0915501309739F053
:1016D00022E0DC012C930480F581E02D099408952B
:1016E00020915201309153012817390771F09093DE
:1016F000530180935201E0915401F09155013097CC
:1017000021F00680F781E02D099408952091500181
:10171000309151012817390771F09093510180934E
:101720005001E0915401F0915501309721F000846F
:10173000F185E02D0994089585B7806885BF85B748
:10174000806885BF089508950C94A30B08950C94A8
:10175000A60B0E949C0B0E9405090C94A40B0E94EE
:10176000C5180E949D070E943B190C94A70BBF92BD
:10177000CF92DF92EF92FF920F931F93CF93DF935D
:10178000CDB7DEB72A970FB6F894DEBF0FBECDBF38
:101790000E947D080E94E608882309F471C087E54D
:1017A000C82E81E0D82E10E000E0B02E802F0E94DD
:1017B0009607E82EF601F1906F01F81609F45AC069
:1017C0008091CB0181FD0E949C0790E080E0FE2487
:1017D0002F2D30E0482FB901082E02C0759567956E
:1017E0000A94E2F760FF41C08E83BF8281E090E0FF
:1017F0006C0102C0CC0CDD1C4A95E2F72E2D30E0C6
:101800002C213D21232B09F480E088870E94CE18EB
:101810008160782F9A8789874E815F8168858A8564
:101820000E94610CF801E95AFE4F80818C2580836B
:101830000E94CE1A0E944B0B90915601891789F194
:101840000E944B0B809356012A960FB6F894DEBF88
:101850000FBECDBFDF91CF911F910F91FF90EF9001
:10186000DF90CF90BF900C94EE03019686309105E7
:1018700009F0B0CF0F5F1F4F0830110509F095CF69
:101880008FEF89838A831B820E94CE188160782F14
:101890009D838C8349815A816B818D810E94610C6B
:1018A000C7CF2A960FB6F894DEBF0FBECDBFDF912B
:1018B000CF911F910F91FF90EF90DF90CF90BF904D
:1018C0000895CF93DF93CDB7DEB72B970FB6F8947B
:1018D000DEBF0FBECDBF4F83588769877A878B875E
:1018E0001E821D8285E0FE013796DE011196019071
:1018F0000D928A95E1F749815A816B817C818D81B6
:101900009E812B960FB6F894DEBF0FBECDBFDF9140
:10191000CF910C94BC13FC01808191810C948916A9
:10192000CF93C82F882309F4E6C08238C1F40E94FF
:101930004B0B81FDE0C089E30E94B7160E942B1774
:101940002FEF81EE94E0215080409040E1F700C0FD
:10195000000089E30E94BE16CF910C942B178338A8
:10196000A1F40E944B0B80FDC6C083E50E94B71610
:101970000E942B172FEF81EE94E021508040904081
:10198000E1F700C0000083E5E5CF8438A1F40E94B0
:101990004B0B82FDB0C087E40E94B7160E942B1744
:1019A0002FEF81EE94E0215080409040E1F700C09D
:1019B000000087E4CFCF8CEF8C0F813A48F48C2F56
:1019C0000E94EC1C811197C08C2F0E94B716C4CFC7
:1019D00080E28C0F883048F4C77081E001C0880F26
:1019E000CA95EAF70E94DF16B7CF8BE58C0F8330DC
:1019F00068F481E890E0C53A31F083E890E0C63AB7
:101A000011F482E890E0CF910C94700B88E58C0F74
:101A1000873108F068C082EE90E0C83A09F460C0EF
:101A200089EE90E0C93A09F45BC08AEE90E0CA3AC8
:101A300009F456C085EB90E0CB3A09F451C086EB2F
:101A400090E0CC3A09F44CC083EB90E0CB3B09F436
:101A500047C084EB90E0CC3B09F442C087EB90E0B8
:101A6000CD3AF1F18CEC90E0C03BD1F18DEC90E0FF
:101A7000CE3AB1F183E891E0CF3A91F18AE891E072
:101A8000C13B71F182E991E0C23B51F184E991E0FF
:101A9000C33B31F181E292E0C43B11F183E292E079
:101AA000C53BF1F084E292E0C63BD1F085E292E0E2
:101AB000C73BB1F086E292E0C83B91F087E292E04A
:101AC000C93B71F08FE690E0CD3B51F080E790E0AC
:101AD000CE3B31F090E080E0CA3B11F48AE292E024
:101AE000CF910C94860BC03F30F08C2F0E94D719F9
:101AF000CF910C94C31ACF910895882309F452C052
:101B0000823871F40E944B0B81FF4CC089E30E9424
:101B1000B7160E942B1789E30E94BE160C942B1750
:101B2000833859F40E944B0B80FF3CC083E50E9430
:101B3000B7160E942B1783E5EFCF843859F40E9423
:101B40004B0B82FF2FC087E40E94B7160E942B1711
:101B500087E4E2CF9CEF980F913AF0F290E2980F71
:101B6000983050F4877091E001C0990F8A95EAF798
:101B7000892F0E94E516D2CF9BE5980F933020F471
:101B800090E080E00C94700B98E5980F973120F46A
:101B900090E080E00C94860B803F20F00E943F1A7A
:101BA0000C94C31A0895CF93C82F0E94900CC93388
:101BB00049F42FEF83EC99E0215080409040E1F709
:101BC00000C000008C2FCF910C947D0D882321F054
:101BD0000E94DF160C942B170895882321F00E9491
:101BE000E5160C942B1708958F929F92AF92BF9297
:101BF000DF92EF92FF920F931F93CF93DF937C01BD
:101C0000D62FC72FFC01058102950F70128111118B
:101C10000E94FE160E94D516D82E882371F011233B
:101C200031F180E28D0F883010F182E00E9476174A
:101C30000E94D51691E0D82ED926BC2EB2949FE0F2
:101C4000B922EB2DF0E0E95DF14F0C948C24390EB4
:101C5000390E890E890ED00EF80ED70ED70E3A0F18
:101C6000D70ED50FD50F5F10D70ED70E6810D12C19
:101C7000E4CF0C2F0F70C07F11F00295007F11236D
:101C8000A9F0002359F080E28D0F883010F0D111B7
:101C900009C0802F0E94DF160E942B178D2F0E94F3
:101CA000900C14C0802F0E94F016F6CF8D2F0E944A
:101CB0007D0D002359F080E28D0F883010F0D11196
:101CC00024C0802F0E94E5160E942B17DD2009F406
:101CD00006C20E94D11680FD02C2F70112820E9444
:101CE000CB160E944F15C7010E947B100E94CB1695
:101CF000DF91CF911F910F91FF90EF90DF90BF90F8
:101D0000AF909F908F900C947015802F0E94F616C4
:101D1000DBCFFC2FFF70BF2EC07FC03219F0B29412
:101D200080EFB822DD2369F0D13049F1112391F120
:101D3000002351F1F701858180FFB0CF8F7085833B
:101D400023C0112381F0011106C00E9412178B29B4
:101D50000E94E60DBBCF0130C1F70E9412178B29FC
:101D60000E941817B3CF011106C00E9421178B2DB6
:101D70000E94ED0DABCF013009F4A8CFF6CF1123AF
:101D800029F0063008F0A2CF8B2DE2CF053008F005
:101D90009DCFEDCF002359F38D2F0E947D0D96CF5F
:101DA0008C2F86958695837079F08130B9F098E014
:101DB000B91609F49BC0B91608F488CF86EF8B0DCD
:101DC000823008F493C082CF8D2F9C2F9370111115
:101DD00002C090E080E00E94700B78CF8D2F9C2F86
:101DE0009370111102C090E080E00E94860B6ECFCC
:101DF000112309F1D53F99F0D63FB9F0D43F49F40A
:101E00008091E6019091E70181609093E7018093D2
:101E1000E6018D2F0E94D7190E94C31A57CF8091D7
:101E2000E6019091E7018260F0CF8091E601909108
:101E3000E7018460EACFD53F89F0D63FA9F0D43FCF
:101E400049F48091E6019091E7018E7F9093E7013C
:101E50008093E6018D2F0E943F1ADECF8091E6012C
:101E60009091E7018D7FF2CF8091E6019091E7019B
:101E70008B7FECCF8C2F837009F04BC0111136C0D3
:101E80002D2F229526952770220F220F6D2F6F7010
:101E9000862E912CB12CA12C022E04C0880C991CEA
:101EA000AA1CBB1C0A94D2F760E070E0CB01D4FFFF
:101EB0000FC06FE070E080E090E004C0660F771F15
:101EC000881F991F2A95D2F76095709580959095F7
:101ED000C695C695C370C23071F0A0F468297929FF
:101EE0008A299B29C13091F00E9401150E944B0B59
:101EF0000E94EE03EBCE682979298A299B290E944A
:101F00001315F4CF0E940115C501B4010E94EF140E
:101F1000EDCF8695112311F08C2F8170882331F33A
:101F20002D2F229526952770220F220F6D2F6F706F
:101F3000862E912CB12CA12C022E04C0880C991C49
:101F4000AA1CBB1C0A94D2F760E070E0CB01D4FF5E
:101F50000FC06FE070E080E090E004C0660F771F74
:101F6000881F991F2A95D2F7609570958095909556
:101F7000C695C695C370C23051F080F4682979299E
:101F80008A299B29C13071F00E94C615AFCF6829FC
:101F900079298A299B290E94D815A8CF0E94C615A5
:101FA000C501B4010E94B415A1CFE0E2ED0FE53107
:101FB00008F066C0F0E0E152F04F0C948C24F40F6E
:101FC000F40FF40FF40FF40FF40FF40FF40FF40FF9
:101FD000F40FF40FF40FF40FF40FF40FF40F0510D7
:101FE00013101A1021102B10DF708C2F8F711123FA
:101FF00031F00E944F158D2F0E94E60DD8CE0E9421
:1020000070158D2F0E94ED0DD2CE112341F00530B9
:1020100008F0CDCE8C2F8F710E949315C8CE06305C
:1020200008F0C5CEF7CF8C2F8F71112339F00E94A5
:102030004F15BDCE8C2F8F711123C9F30E947015DF
:10204000B6CE112329F08C2F8F710E943A15AFCE96
:102050000E943515ACCE112349F0CF718C2F0E9410
:102060004F1563E08C2F0E946117A1CE81E00E9482
:102070007617023008F49BCE82E00E94761797CE46
:10208000112349F0002321F08D2F0E94900C8FCE58
:102090008C2F8F71CCCF002379F0D93349F4FFEF27
:1020A00023EC89E0F15020408040E1F700C00000BF
:1020B0008D2F0E947D0D7BCE8C2F8F71BFCF4C2F2B
:1020C0004F706D2FC7010E942E030E946514FECD34
:1020D0004C2F4F706D2FC7010E941505F7CDDF9172
:1020E000CF911F910F91FF90EF90DF90BF90AF9035
:1020F0009F908F9008950F931F93CF93DF93EC01E0
:10210000988189812B813C81232B39F08F3F19F4F1
:1021100081E09F3F19F080E001C081E080FD17C0A1
:10212000CE010E940604882391F0688179818A811A
:102130000E9493168C010E94EA150E94EC14B801CB
:10214000CE01DF91CF911F910F910C94F40DDF918F
:10215000CF911F910F9108950E94FE160E940F17B4
:102160000E942B170E94661B0E94C31A90E080E019
:102170000E94700B90E080E00C94860B0E94C516C4
:102180000C94AC100E94ED160C94BE10E92FE29551
:10219000EF70E250EE30E0F4F0E0EF52FF4E0C94BE
:1021A0008C24DF10DF10E810E810EA10E810E810C7
:1021B000E810DF10DF10EF10E810E810EF10803F9C
:1021C00019F020F4803E20F481E00895843FE1F38B
:1021D00080E00895803EC0F3813FD1F7F5CF93FBB7
:1021E000882780F908950E9489160C94C610CF9311
:1021F000DF9300D000D01F92CDB7DEB70F900F90C5
:102200000F900F900F90DF91CF910895CF93DF93B0
:1022100000D000D000D0CDB7DEB726960FB6F89428
:10222000DEBF0FBECDBFDF91CF9108951F93CF9337
:10223000DF93C091600116E0809161018C1304C0AE
:10224000DF91CF911F910895D0E01C9FF0011D9F59
:10225000F00D1124EE59FE4F40815181628173814E
:10226000848195810E9406112196C770E5CF409127
:102270009201509193016091940170919501809128
:102280009601909197010C94061120916001909114
:10229000610156E0291302C080E0089530E0529FAA
:1022A000F001539FF00D1124EE59FE4F718176130A
:1022B00006C07081781303C07281741304C02F5F4D
:1022C0003F4F2770E7CF81E008951F93CF93DF93AF
:1022D00080919701807FD1F4809194018823B1F09F
:1022E00080916001D0916101B0919201C091930100
:1022F0004091950150919601A1E0BF3F09F0A0E007
:10230000BA016095709516E0D81304C0DF91CF91A3
:102310001F91089521E04115510521F02A2FCF3F4B
:1023200009F020E090E020FD38C0189FF001199FCF
:10233000F00D1124EE59FE4F21812C132EC0208167
:102340002B132BC02281211128C023813481241713
:10235000350700F1241B350B283C3105F0F42091A2
:1023600097012F7020612093970126E0289FF001AC
:10237000299FF00D1124E959FE4F80818F708061F3
:10238000808382E991E00E947B10DF91CF911F91C1
:102390000C941611260F371FDFCF01968770B4CF2C
:1023A0009F92AF92BF92CF92DF92EF92FF920F93E4
:1023B0001F93CF93DF93CDB7DEB761970FB6F89435
:1023C000DEBF0FBECDBF8C0185E0F801DE011D969A
:1023D00001900D928A95E1F7D801DC901196EC906E
:1023E00011971296CC903091920140919301809177
:1023F00095019091960121E0009731F04F3F19F43B
:1024000021E03F3F09F020E020FD9AC1F801A380C0
:10241000B48090909401992009F43FC1A816B906A0
:10242000E0F1B501681B790BCB01FF24F394883CE4
:10243000910508F0F12C80919701982F907FFF2053
:1024400009F4E4C091119DC0FC2C4E112BC03D112C
:1024500029C0C11027C08F708061809397010E94AE
:10246000371182E991E00E947B1080919701D80199
:1024700015968C938F2D61960FB6F894DEBF0FBE24
:10248000CDBFDF91CF911F910F91FF90EF90DF9023
:10249000CF90BF90AF909F900895809590958A0DB2
:1024A0009B1DC3CF81E0A114B10431F0BFEFEB124B
:1024B00002C081E0DB1280E080FD1AC081E08C2543
:1024C00080FF18C04C2D6E2D8D2D0E944511882344
:1024D00089F082E991E00E947B1086E0E2E9F1E078
:1024E000DF011D928A95E9F70E943711F12CC2CFC6
:1024F00080E0E6CF81E0AB2831F0BFEFEB1202C005
:1025000081E0DB1280E080FD25C081E08C25E82F92
:10251000E170AE2E80FF2CC04C2D6E2D8D2D0E94B3
:102520004511B82E811124C0DD86EE868D859E85ED
:102530000E948916292F22952F70223068F02430AE
:1025400090F49F7069F0D80115969C91907F41F4AA
:10255000FB2C90CF80E0DBCF9F7011F08823C1F37C
:10256000805E8830A8F3C8010E947B10BA2CF0CF9F
:10257000CC2009F47FCF80919701816080939701EF
:10258000B5CF4E1114C03D1112C0C11010C0F801DA
:102590008583C8010E947B1086E0F801A2E9B1E0C2
:1025A00001900D928A95E1F70E94371163CFDD8685
:1025B000EE868D859E850E94F310882319F1CC202C
:1025C00009F180919701803270F020919201309151
:1025D000930138872F831986BB86AA868C87CE0104
:1025E00007960E947B1086E0F801A2E9B1E0019015
:1025F0000D928A95E1F70E9465110E943711FF2420
:10260000F39438CFC8010E947B10F9CF911115C007
:102610007A2DB98AA88A4D2D5E2D6C2D89890E944C
:10262000F71082E991E00E947B1086E0E2E9F1E098
:10263000DF011D928A95E9F7B7CF4E1112C03D1107
:1026400010C0C1100EC0F8018583C8010E947B1024
:10265000E2E9F1E086E0DF011D928A95E9F7F92CC5
:1026600009CFDD86EE868D859E850E94F310882336
:1026700049F2CC2039F280919701803208F4B3CF2F
:1026800020919201309193013A8329831B82BD826C
:10269000AC828E83CE010196A4CFA816B90638F17C
:1026A000F501E81BF90BCF01F12C883C910508F0EE
:1026B0003DC0FC2CCC2009F4A5CF4E1126C03D1105
:1026C00024C08091970180FD17C0982F907FA1F0C2
:1026D000D80115968C931597903F09F45ACF982FEF
:1026E000907F905F8F70892B15968C9352CF809539
:1026F00090958A0D9B1DD8CF86E0F801A2E9B1E044
:1027000001900D928A95E1F7B5CEDD86EE868D8536
:102710009E850E94F310811166CF809197018160A0
:1027200080939701C8010E947B10A4CE7A2DB98AAC
:10273000A88A4D2D5E2D6C2D89890E94F71075CFCA
:10274000CC2009F45FCFDD86EE868D859E850E94C4
:10275000F310F82E882309F455CF86E0F801A2E99A
:10276000B1E001900D928A95E1F782E991E00E9433
:102770008B0C0E94651118CF1F93CF93DF93CDB7B9
:10278000DEB72C970FB6F894DEBF0FBECDBF4F83D8
:10279000588769877A878B879C87CE0107960E9426
:1027A000D011882309F442C09F8188852A853B8502
:1027B000232B39F08F3F19F481E09F3F19F080E01F
:1027C00001C081E080FD08C04F81588569857A8508
:1027D0008B859C850E94061116E080916001909186
:1027E0006101891709F467C0819FC00111248E59C6
:1027F0009E4F0E94D011882309F45DC0E0916001D2
:102800001E9FF0011124EE59FE4F408151816281DB
:102810007381848195810E9406118091600190E00E
:1028200001968770992780936001D7CF86E0FE01DB
:102830003796DE01119601900D928A95E1F79F81FE
:1028400088852A853B85232B39F08F3F19F481E059
:102850009F3F19F080E001C081E080FDBDCF209155
:10286000610130E0C90101968770992740916001AC
:102870004817190699F096E0929FD001939FB00DEA
:102880001124AE59BE4FFE01319601900D929A95DA
:10289000E1F7809361010E9416119ECF0E94C21041
:1028A000109261011092600186E0E2E9F1E0DF013F
:1028B0001D928A95E9F72C960FB6F894DEBF0FBEED
:1028C000CDBFDF91CF911F910895EF92FF920F93AB
:1028D0001F93CF93DF938C01892B81F0F12CEE2491
:1028E000E394E8012196F8018491843770F48430F0
:1028F00008F05FC08130B1F08230A1F1DF91CF915B
:102900001F910F91FF90EF900895853709F44CC007
:1029100008F43DC09CE7980F903780F78F770E94AE
:102920007D0D49C00E5F1F4FFE01849190E2980F0C
:10293000983060F48770FE2D01C0FF0F8A95EAF78A
:102940008F2F0E9401170E942B1702C00E94900C2B
:102950008F2D815030F2EFE9FFE03197F1F700C0A1
:102960000000F7CF0E5F1F4FFE01849190E2980F99
:10297000983050F48770FE2D01C0FF0F8A95EAF75A
:102980008F2F0E940717DFCF0E947D0DE1CF0E5FD2
:102990001F4FFE01C491C150D8F28FE99FE001970B
:1029A000F1F700C00000F7CF0E5F1F4FFE01F4905B
:1029B000CFCF0E94900C8E01CBCF08950C94DD14E4
:1029C0000E94DE146093BA017093BB018093BC0136
:1029D0009093BD010C94AC1008950C94E0140F93E7
:1029E0001F930091BA011091BB012091BC0130915D
:1029F000BD01602B712B822B932B1F910F910C9497
:102A0000E0140F931F930091BA011091BB01209124
:102A1000BC013091BD0160237123822393231F9158
:102A20000F910C94E0140F931F930091BA01109131
:102A3000BB012091BC013091BD0160277127822725
:102A400093271F910F910C94E0140C94DD140C94B7
:102A500025150E9427156093B6017093B7018093E6
:102A6000B8019093B9010C94AC1060E070E0CB0118
:102A70000C9429150F931F9341E050E060E070E043
:102A80008A019B0104C0000F111F221F331F8A956A
:102A9000D2F7C901B8011F910F910C9429150F931A
:102AA0001F9341E050E060E070E004C0440F551F08
:102AB000661F771F8A95D2F78091B6019091B70172
:102AC000A091B801B091B9018A019B01082B192B83
:102AD0002A2B3B2BC901B8011F910F910C9429158A
:102AE0000F931F9341E050E060E070E004C0440F9A
:102AF000551F661F771F8A95D2F7CB01BA016095E3
:102B00007095809590950091B6011091B701209134
:102B1000B8013091B90160237123822393231F915F
:102B20000F910C9429150F931F9341E050E060E042
:102B300070E004C0440F551F661F771F8A95D2F7B7
:102B40008091B6019091B701A091B801B091B901FF
:102B50008A019B01082719272A273B27C901B801A9
:102B60001F910F910C9429150F931F930091B6019B
:102B70001091B7012091B8013091B901602B712BF0
:102B8000822B932B1F910F910C9429150F931F9358
:102B90000091B6011091B7012091B8013091B901AF
:102BA00060237123822393231F910F910C94291585
:102BB0000F931F930091B6011091B7012091B801B6
:102BC0003091B90160277127822793271F910F91B8
:102BD0000C9429150895292F220F920F990F890F10
:102BE000982F977071E001C0770F9A95EAF7869554
:102BF0008695869525E0829FC001112450E040E033
:102C0000A62FB0E0FC01E40FF51FE856FE4F6081EF
:102C10009D01042E02C0369527950A94E2F7217093
:102C2000219526272723262720834F5F5F4F453096
:102C3000510541F70895292F220F290F220F820FE6
:102C4000982F977086958695869545E0849F90018C
:102C5000112470E060E080E0F901E60FF71FE8560C
:102C6000FE4F408150E0092E02C0569547950A94C8
:102C7000E2F741705527062E01C0440F0A94EAF787
:102C8000842B6F5F7F4F6530710531F70895BF92D8
:102C9000CF92DF92EF92FF920F931F93CF93DF9328
:102CA0008C01C090B601D090B701E090B801F090CF
:102CB000B9018091BA019091BB01A091BC01B09182
:102CC000BD01C82AD92AEA2AFB2ACFE1D0E0BC2ECE
:102CD000D701C6010C2E04C0B695A7959795879588
:102CE0000A94D2F780FD0EC0219788F7B12C8B2D66
:102CF000DF91CF911F910F91FF90EF90DF90CF90D8
:102D0000BF900895B8018C2F0E943205019761F39E
:102D1000EECFCF93DF93EC010E944716BE01DF9107
:102D2000CF910C9432051F93CF93DF93EB019091D9
:102D30005F01992331F0CB01DF91CF911F910C946A
:102D40008916882379F0CB010E944716182F682F27
:102D5000CE010E94EB15BE01812FDF91CF911F9113
:102D60000C943205CB010E941B16182FF4CF682F4C
:102D70008091090190910A010C943D18682F80916F
:102D8000090190910A010C943F18809109019091DA
:102D90000A010C9441188091BE0185958595859511
:102DA00008958091BE01877008959091BE0197703B
:102DB00081E009F480E008958091CA01089590911E
:102DC000CA01892B8093CA010895982F909580910C
:102DD000CA0189238093CA0108951092CA010895F7
:102DE0009091C901892B8093C9010895982F9095DE
:102DF0008091C90189238093C90108951092C90166
:102E000008959091C801892B8093C8010895982F47
:102E100090958091C80189238093C80108951092EC
:102E2000C80108958091BF01089508950C94151765
:102E30009091BF01981721F08093BF010C94161751
:102E400008958091BF01882329F01092BF0180E08E
:102E50000C9416170895E0910901F0910A018091F0
:102E6000CA018083E0910901F0910A01808190916B
:102E7000C901892B8083E0910901F0910A018081C9
:102E80009091C801892B80839091BF01992381F093
:102E9000E0910901F0910A018081892B8083809162
:102EA000090190910A010E940A1881110E942117BC
:102EB0008091090190910A010C94570B08950C948C
:102EC0005E1798E0899F90011124622B6093BE01E8
:102ED0000E944F158091BE018595859585950C942E
:102EE0005F171092BE0180E00C945F179091BE01B5
:102EF000809589238093BE01282F277071F4282F95
:102F0000082E000C330B9217130639F08595859522
:102F100085950E9470150C947117089590E080E0DB
:102F20000E94AE2421E08D3E9E4F09F020E0822FCA
:102F3000089582E090E00C94A62483E090E00C9445
:102F4000A62484E090E00C94A624682F84E090E00E
:102F50000C94B424AB01BC018FE090E00C94C62427
:102F6000AB01BC0183E190E00C94C62460E070E00A
:102F7000CB010C94B01760E070E0CB010E94AA175F
:102F80000C94B6176DEE7EEF90E080E00E94D224A4
:102F900060E082E090E00E94B42460E083E090E092
:102FA0000E94B4241092BA011092BB011092BC018D
:102FB0001092BD0160E084E090E00E94B42460E0E3
:102FC00085E090E00E94B42460E086E090E00E94FA
:102FD000B4246FEF87E090E00E94B42440E050E01A
:102FE000BA0188E090E00E94C62460E08DE090E0A5
:102FF0000E94B42440E050E0BA0188E190E00E94D1
:10300000C62460E087E190E00E94B4240C94BB17D2
:103010000C94C217FC01329697E080E0915009F4BD
:10302000089521912223D1F38F5FF8CF9C01FC01F9
:1030300032969FEF80E04191461751F09F3F19F47F
:10304000411101C0982F8F5F8630A9F79F3F09F487
:103050000895290F311D97FD3A95F901628308956E
:10306000FC01329608962191261303C0DF011197C7
:103070001C92E817F907B9F708950C9416180C94E8
:103080003018029626E0FC0111922A95E9F708957E
:10309000089508950C9449180E944A188091F201ED
:1030A000843049F11092CC0188E190E020E40FB621
:1030B000F894A895809360000FBE2093600080E094
:1030C0000E94EE030E944A1883B7817F846083BF09
:1030D00083B7816083BF7894889583B78E7F83BFE1
:1030E0000FB6F894A8958091600088618093600085
:1030F000109260000FBE08950895CF930E94481863
:103100000E947D080E947C18C0E08C2F0E949607C8
:10311000811105C0CF5FC830C1F7CF91089581E01C
:10312000FCCF08950C9491180E94C2100E944B0B82
:103130000E94EE030C9492181F920F920FB60F92FA
:1031400011248F939F93AF93BF938091CC018111F2
:1031500013C08091E8019091E901A091EA01B0913A
:10316000EB014196A11DB11D8093E8019093E90107
:10317000A093EA01B093EB01BF91AF919F918F9122
:103180000F900FBE0F901F90189582E084BD93E0C2
:1031900095BD9AEF97BD80936E0008952FB7F89470
:1031A0008091E8019091E901A091EA01B091EB01D1
:1031B0002FBF0895CF92DF92EF92FF920F931F934C
:1031C0002FB7F8944091E8015091E9016091EA012C
:1031D0007091EB012FBF6A017B01EE24FF248C016B
:1031E00030E020E0C016D106E206F30650F0481B9E
:1031F000590BCA011F910F91FF90EF90DF90CF9074
:10320000089541505109F3CF78941F920F920FB651
:103210000F9211248F939F93AF93BF938091E801F6
:103220009091E901A091EA01B091EB010196A11DF5
:10323000B11D8093E8019093E901A093EA01B09356
:10324000EB01BF91AF919F918F910F900FBE0F90A7
:103250001F90189587E797E79093010880930008DF
:1032600088E19AE00FB6F894A895809360000FBEAD
:1032700090936000FFCF0E948E17811102C00E94C0
:1032800008180E9499178093CB010E94A11790E023
:103290009093ED018093EC010E949D17682F70E0E0
:1032A00090E080E00C94ED148091D00180FF12C07A
:1032B00060910E0185E0689FB001112475956795B6
:1032C0007595679560387105A8F561157105A1F1CF
:1032D000862F089581FF09C060910E0185E0689FE7
:1032E000B001112475956795EDCF82FF07C06091FD
:1032F0000E0185E0689FB0011124E4CF2091CF0139
:103300002223A9F090910D0160910E0185E0689F44
:10331000B00111242917B0F6269FA001279F500D58
:103320001124692F70E0CA010E947824CBCF65E098
:1033300070E0CECF8FE7089581E008958091D001AD
:1033400080FF0CC060910C0170E0759567957595D4
:1033500067956115710549F1862F089581FF06C0B3
:1033600060910C0170E075956795F3CF60910C0149
:1033700082FD0BC09091CF019923A1F060910B01C8
:1033800080910C01961738F0682F70E06038710555
:1033900000F38FE70895899FC001112470E00E9417
:1033A0007824F4CF61E070E0D7CF81E00895803FCA
:1033B00031F40E94541981958093D4010895813F7E
:1033C00019F40E945419F8CF823F31F40E94541925
:1033D00081958093D3010895833F19F40E94541975
:1033E000F8CF893F29F40E949E198093D501089552
:1033F0008A3F21F40E949E198195F7CF8B3F31F4CB
:103400000E949E1981958093D60108958C3F19F4EE
:103410000E949E19F8CF843F31F48091D2018160DF
:103420008093D2010895853F21F48091D20182607A
:10343000F7CF863F21F48091D2018460F1CF873F9E
:1034400021F48091D2018860EBCF883F21F48091F4
:10345000D2018061E5CF8D3F31F48091D001816050
:103460008093D00108958E3F21F48091D001826035
:10347000F7CF8F3FB9F78091D0018460F1CF803FC3
:10348000C1F48091D40187FD1092D4018091D301C1
:1034900081110EC08091D40181110AC08091D501A3
:1034A000811106C08091D601811102C01092CF0116
:1034B0000895813F29F48091D40118162CF3E6CFAA
:1034C0009091D301823F29F497FFE0CF1092D3016E
:1034D000DDCF833F19F41916CCF3D8CF893F39F4E7
:1034E0008091D501181694F61092D501CFCF8A3F5E
:1034F00029F48091D50187FFC9CFF6CF8B3F39F4EE
:103500008091D60187FFC2CF1092D601BFCF8C3FEA
:1035100029F48091D6011816BCF3B8CF843F31F45A
:103520008091D2018E7F8093D201B0CF853F21F46C
:103530008091D2018D7FF7CF863F21F48091D20117
:103540008B7FF1CF873F21F48091D201877FEBCF32
:10355000883F21F48091D2018F7EE5CF8D3F31F4F9
:103560008091D0018E7F8093D00190CF8E3F21F447
:103570008091D0018D7FF7CF8F3F09F087CF809169
:10358000D0018B7FF0CF81ED91E00E94620B0E9411
:10359000CE189093CE018093CD0108951F93CF93C1
:1035A000DF938091CD019091CE010E94DA18AC0199
:1035B0009091CF0120910F0130E0911106C0209130
:1035C00010018AE0289F900111244217530780F0D0
:1035D0008091D3011091D401D091D501C091D60131
:1035E00081110AC011116EC0D1116CC0C1116AC025
:1035F000DF91CF911F9108959F3F19F09F5F9093A6
:10360000CF01181624F40E9454198093D30180919D
:10361000D30187FF05C00E94541981958093D3017F
:10362000111624F40E9454198093D4018091D4017E
:1036300087FF05C00E94541981958093D401309171
:10364000D3013323A1F02091D401222381F045EB53
:103650003403C0011124992369F19093D30145EB00
:10366000240390011124332349F13093D4011D1612
:1036700024F40E949E198093D5018091D50187FF83
:1036800005C00E949E1981958093D5011C1624F4D3
:103690000E949E198093D6018091D60187FF05C0B4
:1036A0000E949E1981958093D601DF91CF911F9141
:1036B0000C94C31A81E08093D301D1CF81E0809331
:1036C000D401D5CF9F3F09F099CFAACF86E0E1ED95
:1036D000F1E0DF011D928A95E9F71092CF01109277
:1036E000D0010895833081F128F4813059F082307F
:1036F000D1F00895853009F449C0B8F1863009F455
:1037000056C0089580911001482F460F5527551F28
:103710004F3F510524F4680F6093100108958FEF17
:1037200080931001089580910F01482F460F55276F
:10373000551F4F3F510524F4680F60930F01089502
:103740008FEF80930F01089580910E01482F460F4F
:103750005527551F4F3F510524F4680F60930E0104
:1037600008958FEF80930E01089580910D01482FE9
:10377000460F5527551F4F3F510524F4680F60939E
:103780000D0108958FEF80930D01089580910C0134
:10379000482F460F5527551F4F3F510524F4680FFA
:1037A00060930C0108958FEF80930C010895809130
:1037B0000B01482F460F5527551F4F3F510524F445
:1037C000680F60930B0108958FEF80930B010895AC
:1037D000833011F128F4813049F0823091F008955E
:1037E000853081F120F18630C1F10895809110017A
:1037F000681720F4861B8093100108951092100121
:10380000089580910F01681720F4861B80930F01A3
:10381000089510920F01089580910E01681720F409
:10382000861B80930E01089510920E0108958091D9
:103830000D01681720F4861B80930D0108951092E6
:103840000D01089580910C01681720F4861B809368
:103850000C01089510920C01089580910B016817D6
:1038600020F4861B80930B01089510920B0108959C
:103870000F931F9341E050E060E070E08A019B01EC
:1038800004C0000F111F221F331F8A95D2F7C901F0
:10389000B8010E94ED141F910F910C94C2108B314E
:1038A00009F470C040F58B3071F078F4863009F47B
:1038B00050C020F4853059F180E00895873009F434
:1038C00052C08830C9F781E00895803109F468C09A
:1038D00068F48E3089F79091CB01892F8B7F92FF0E
:1038E00084608093CB0182FD57C0EDCF863159F3C0
:1038F000893149F3E1CF8A3249F1B8F4873211F1C5
:1039000020F48E31C8F28D511EC08932A9F60E9472
:10391000C2102FEF83ED90E3215080409040E1F7FB
:1039200000C000000E942A19CECF833440F48A33AD
:1039300008F041C0853331F0883329F2BDCF83349C
:1039400009F0BACF80E00E94381CBDCF0E94081851
:10395000BACF8091CB01817F8E7F8093CB0181E0B4
:103960008093D80108959091CB01892F8E7F90FF8D
:1039700081608093CB0180FDA6CF897F877F809374
:10398000CB01A1CF9091CB01892F8D7F91FF8260D8
:103990008093CB0181FF97CF8091CB018160EFCFE6
:1039A0009091CB01892F877F93FF88608093CB0113
:1039B00083FDF2CF88CF8953C6CF80E008950C9461
:1039C000DD1C8E518A3030F4E82FF0E0E65DFE4FCA
:1039D0008081089580E00895CF93C82F8091D80109
:1039E0008130B1F030F08230A9F11092D80180E03E
:1039F0000DC00E94DC168232D1F78C2F0E94DD1C94
:103A0000811118C08C2F0E944F1C8170CF91089596
:103A10000E94DC16823289F38C2F0E94DF1C8111F8
:103A200010C0C43181F048F4CB3059F0C03171F08E
:103A300080E0EBCF81E090E0E8CFC93221F0C833DD
:103A4000B9F781E0E2CF1092D801F2CF82E0809303
:103A5000D801F7CFC93219F188F4C43101F120F44B
:103A6000C73081F181E0D2CF82EE8C0F8630D0F763
:103A70008C2F0E94E11C8093D701F4CFCE3401F14A
:103A800040F46AE0CB3471F78091D7010E94721B39
:103A9000E9CFC13579F061E0C235B1F3E3CF809170
:103AA000D701882319F01092D701DCCF81E08093F1
:103AB000D801ACCF61E08091D7010E94E81BD2CF42
:103AC0006AE0F9CF8EE18093100182E380930F01C9
:103AD0008AE080930E0184E180930D0188E0809359
:103AE0000C0188E280930B01BDCF8091E101089524
:103AF0000F931F93CF93DF9300D01F92CDB7DEB704
:103B00008C010E94C91F823011F0843021F584E0BD
:103B100089831B830A8382E08093E9008FEF909171
:103B2000E800815095FD06C095ED9A95F1F70000EB
:103B30008111F5CF8091E80085FF0DC050E040E095
:103B400063E070E0CE0101960E94E61F8091E800DC
:103B50008E778093E8000F900F900F90DF91CF91B8
:103B60001F910F910895CF93DF9300D01F92CDB78F
:103B7000DEB72091F201243031F523E0298380580B
:103B800091099B838A8382E08093E9008FEF909173
:103B9000E800815095FD06C095ED9A95F1F700007B
:103BA0008111F5CF8091E80085FF0DC050E040E025
:103BB00063E070E0CE0101960E94E61F8091E8006C
:103BC0008E778093E8000F900F900F90DF91CF9148
:103BD0000895CF93DF93EC010E94C91F823011F04A
:103BE0008430F9F482E08093E9008FEF9091E8004F
:103BF000815095FD06C095ED9A95F1F70000811171
:103C0000F5CF8091E80085FF0CC050E040E066E011
:103C100070E0CE010E94E61F8091E8008E778093CD
:103C2000E800DF91CF910895CF93DF93EC010E94DC
:103C3000C91F823011F0843039F581E08093E900AA
:103C40008FEF9091E800815095FD06C095ED9A9513
:103C5000F1F700008111F5CF8091E80085FF14C0D5
:103C600050E040E068E070E0CE010E94E61F8091E5
:103C7000E8008E778093E80088E0FE01A9EDB1E0CE
:103C800001900D928A95E1F7DF91CF91089580918F
:103C9000F101811109C00E9476210E94D3218091F7
:103CA000E20084608093E20008951092F10108958B
:103CB000089508950C94941842E061EC81E00E940C
:103CC000F42042E261EC82E00C94F4208091F40153
:103CD000833009F462C030F48130D9F1823009F4C4
:103CE0009EC008958A3009F48AC08B3009F470C0F0
:103CF000893009F051C08091F301813209F04CC044
:103D00008091F7019091F801029708F045C08091E9
:103D1000E800877F8093E8008091E80082FF38C048
:103D20008091F3009091F2008927982789270297C4
:103D300029F48091F1008B7F813021F48091F10092
:103D40008093E1018091E8008B778093E8000C94E8
:103D500028218091F301813AF9F48091E800877F6E
:103D60008093E8008091F7019091F801892B61F42C
:103D700068E089ED91E070E00E9435208091E800D4
:103D80008B778093E800089560E090E080E0F3CFC7
:103D90008091F2018111C0CF08958091F301813AA1
:103DA000D9F78091F7019091F801892BA9F78091BB
:103DB000E800877F8093E8008091E80080FFFCCFD7
:103DC00080911B018093F1008091E8008E77BDCF38
:103DD0008091F301813201F78091F7019091F80110
:103DE000892BD1F68091E800877F8093E8000E94BC
:103DF00028218091F50180931B010C94C2108091C1
:103E0000F301813249F68091E800877F8093E800D2
:103E10000E9428218091F6018093E201089580910B
:103E2000F301813A09F0B8CF8091E800877F809351
:103E3000E8008091E80080FFFCCF8091E201C2CFD2
:103E400084B7877F84BF0FB6F894A89580916000EF
:103E5000886180936000109260000FBE80E88093BC
:103E60006100109261000E94A90B0E9476210E94BD
:103E7000D3218091E20084608093E20078940E94D4
:103E80005C240E94AF0B81E191E00E94460B80917F
:103E9000F201853019F00E94B70BF9CF0E944C183F
:103EA0008091F001882399F30E947D18882379F38B
:103EB0000E94D01FECCF0C945D1F292F3327233095
:103EC000310571F158F421303105E9F02230310526
:103ED00011F190E080E030E020E019C0213231059E
:103EE000C1F122323105A9F780E490E025E835E000
:103EF0006115710561F085E890E020E035E0613002
:103F0000710529F0E6CF82E190E02EEE34E0FA016F
:103F10003183208308958BE390E023EB34E0F7CFE7
:103F200099278130910579F040F08230910571F048
:103F3000039779F6E3E7F4E002C0EFEAF4E0849156
:103F400090E09F01E4CFE7E9F4E0F9CFE9E7F4E09E
:103F5000F6CF89E090E025EC34E061157105B9F207
:103F600089E090E02EED34E06130710581F2B1CF4F
:103F70000895CF93C82F0E94B81FC093E301CF913B
:103F800008958091F201843011F081E0089582E07B
:103F900008958091E301811102C00C94C11F08951E
:103FA00080E189BD82E189BD09B400FEFDCF809129
:103FB000D8008F7D8093D8008091E000826080934C
:103FC000E0008091E00081FDFCCF0895AF92BF92A8
:103FD000CF92DF92FF920F931F93CF93DF936C01E9
:103FE000EB018A010E944721F82E811123C001159F
:103FF000110539F0F80180819181C81BD90BC80ED9
:10400000D91EB12CA12C2097A9F08091E80085FD44
:1040100022C08091E8008E778093E8000115110599
:10402000A1F0F80180819181A80EB91EB182A08211
:1040300085E0F82E8F2DDF91CF911F910F91FF908A
:10404000DF90CF90BF90AF9008950E9447218823C2
:10405000D1F2F82EEFCFF60181916F018093F1003C
:104060002197FFEFAF1ABF0ACECFFC018091F90173
:104070009091FA0186179707A0F06115710529F450
:104080009091E8009E779093E80090E061157105AB
:1040900051F4911108C08091E80082FF35C080E0A2
:1040A0000895BC01F2CF8091F2018823C9F18530D7
:1040B000C9F18091E80083FD31C08091E80082FD64
:1040C000EACF8091E80080FFE1CF2091F30080915A
:1040D000F200322F282F6115710519F028303105B3
:1040E00058F091E02830310509F090E02091E80087
:1040F0002E772093E800CACF81918093F100615020
:1041000071092F5F3F4FE7CF8091F201882341F083
:10411000853041F08091E80083FFBDCF81E00895B4
:1041200082E0089583E00895FC018091F901909167
:10413000FA0186179707A0F06115710529F480919F
:10414000E8008E778093E80090E06115710551F4E6
:10415000911108C08091E80082FF36C080E0089588
:10416000BC01F2CF8091F2018823D1F18530D1F1E9
:104170008091E80083FD32C08091E80082FDEACFA3
:104180008091E80080FFE1CF2091F3008091F20060
:10419000322F282F6115710519F02830310558F09C
:1041A00091E02830310509F090E08091E8008E77A9
:1041B0008093E800CACF84918093F10031966150DA
:1041C00071092F5F3F4FE6CF8091F201882341F0C4
:1041D000853041F08091E80083FFBCCF81E00895F5
:1041E00082E0089583E00895982F973028F08F702B
:1041F0008093E90081E008959093E900242F762FC1
:1042000050E0981731F07091EC002091ED00509142
:10421000F00021FD02C09F5FE8CF3091EB003E7FB0
:104220003093EB003091ED003D7F3093ED00309105
:10423000EB0031603093EB007093EC002093ED00C5
:104240005093F0002091EE0027FDE5CF80E0089527
:104250008091F30187FF13C08091E80082FF06C0C0
:104260008091E8008B778093E80004C08091F20190
:104270008111F2CF08958091F2018823D9F38091C2
:10428000E80080FFF8CF8091E8008E77ECCF209196
:10429000E4003091E50085E69091EC0090FF06C0C7
:1042A0009091E80090FF06C080E008959091E800AA
:1042B00092FDFACF9091F201992391F0953091F00F
:1042C0009091EB0095FD10C04091E4005091E50005
:1042D0002417350709F381509A01F1F684E0089517
:1042E00082E0089583E0089581E008950E94E4212A
:1042F0000E94EC21E0EEF0E0808181608083E8EDB7
:10430000F0E080818F77808319BCA7EDB0E08C91BD
:104310008E7F8C9380818F7E80831092F10108952F
:104320000F931F93CF93DF930E94E4210E94EC210F
:10433000C8EDD0E088818F77888388818068888302
:1043400088818F7D888319BC1092F2011092EE0152
:104350001092F0011092EF0100EE10E0F801808160
:104360008B7F808388818160888342E060E080E089
:104370000E94F420E1EEF0E080818E7F8083E2EE07
:10438000F0E0808181608083808188608083F80193
:1043900080818E7F8083888180618883DF91CF9147
:1043A0001F910F910895E8EDF0E080818F7E80836A
:1043B000E7EDF0E080818160808384E082BF81E06E
:1043C0008093F1010C949021E8EDF0E080818E7FE4
:1043D00080831092E20008951092DA001092E100BA
:1043E00008951F920F920FB60F9211242F933F93AF
:1043F0004F935F936F937F938F939F93AF93BF93ED
:10440000EF93FF938091E10082FF0BC08091E20067
:1044100082FF07C08091E1008B7F8093E1000E94C2
:104420005B248091DA0080FF19C08091D80080FF62
:1044300015C08091DA008E7F8093DA008091D900D8
:1044400080FF94C080E189BD82E189BD09B400FE8E
:10445000FDCF81E08093F2010E94471E8091E10030
:1044600080FF19C08091E20080FF15C08091E200BA
:104470008E7F8093E2008091E20080618093E20071
:104480008091D80080628093D80019BC85E0809329
:10449000F2010E94591E8091E10084FF29C08091A1
:1044A000E20084FF25C080E189BD82E189BD09B4B5
:1044B00000FEFDCF8091D8008F7D8093D800809141
:1044C000E1008F7E8093E1008091E2008F7E8093F7
:1044D000E2008091E20081608093E2008091EE0131
:1044E000882309F449C084E08093F2010E945A1E97
:1044F0008091E10083FF29C08091E20083FF25C005
:104500008091E100877F8093E10082E08093F20157
:104510001092EE018091E1008E7F8093E100809106
:10452000E2008E7F8093E2008091E20080618093C0
:10453000E20042E060E080E00E94F4208091F00020
:1045400088608093F0000E94581EFF91EF91BF9108
:10455000AF919F918F917F916F915F914F913F911B
:104560002F910F900FBE0F901F90189519BC1092AD
:10457000F2010E94551E72CF8091E30087FD02C0B8
:1045800081E0B2CF83E0B0CF1F920F920FB60F92AF
:1045900011242F933F934F935F936F937F938F9348
:1045A0009F93AF93BF93CF93EF93FF93C091E90095
:1045B000CF708091EC001092E9008091F000877F2D
:1045C0008093F00078940E9400231092E90080917B
:1045D000F00088608093F000C093E900FF91EF91B4
:1045E000CF91BF91AF919F918F917F916F915F918B
:1045F0004F913F912F910F900FBE0F901F901895E4
:104600001F93CF93DF93CDB7DEB7AA970FB6F89479
:10461000DEBF0FBECDBFE3EFF1E08091F1008193EB
:1046200021E0EB3FF207C9F70E94661E8091E80087
:1046300083FF44C08091F3019091F4019A3008F017
:104640003DC0E92FF0E0E95DFC4D0C948C24312352
:1046500057235E2357235E23B523D7235E232E24BF
:104660003B24803889F0823849F58091F7018F70BA
:10467000873020F58093E9008091EB0085FB882747
:1046800080F91092E90006C08091EF019091F0014D
:10469000911182609091E800977F9093E800809359
:1046A000F1001092F1008091E8008E772DC0282F44
:1046B0002D7F21F48823D1F0823059F18091E800D8
:1046C00083FF0AC08091E800877F8093E800809193
:1046D000EB0080628093EB00AA960FB6F894DEBFE1
:1046E0000FBECDBFDF91CF911F9108958091F5014D
:1046F000813021F7933009F080E08093F00110922F
:10470000E9008091E800877F8093E8000E942821DB
:10471000D5CF8091F5018111F2CF8091F7018F7093
:104720002FEF280F263050F68093E9002091EB0000
:1047300020FFE5CF933031F48091EB0080628093CD
:10474000EB00DDCF9091EB0090619093EB0021E0C6
:1047500030E001C0220F8A95EAF72093EA00109218
:10476000EA008091EB008860EACF8111A7CF109119
:10477000F5011F778091E3008078812B8093E3001F
:104780008091E800877F8093E8000E942821809133
:10479000E80080FFFCCF8091E30080688093E30015
:1047A00083E0111101C082E08093F20187CF80582D
:1047B000823008F083CF8091F5019091F6018C3D15
:1047C00023E09207A1F583E08A838AE289834FB7C9
:1047D000F894DE01139620E03EE051E2E32FF0E092
:1047E00050935700E49120FF03C0E295EF703F5FC4
:1047F000EF708E2F90E0EA30C0F0C7968D939D93B6
:104800002F5F243159F74FBF8091E800877F809355
:10481000E8006AE270E0CE0101960E9435208091A6
:10482000E8008B778093E80049CFC096E7CF60918E
:10483000F7017091F801AE014F5F5F4F0E945B1F5F
:10484000BC01892B09F43ACF9091E800977F9093AF
:10485000E80089819A810E949420E1CF803809F094
:104860002DCF8091E800877F8093E8008091EE0152
:104870008093F10018CF811121CF9091F5019230F2
:1048800008F01CCF8091E800877F8093E800909328
:10489000EE010E9428218091EE01882331F084E00E
:1048A0008093F2010E945C1E09CF8091E30087FD96
:1048B000F6CF81E0F5CF0895CF938091F201882360
:1048C00099F0C091E900CF708091EC0080FD0EC09E
:1048D00080E0C82B1092E9008091E80083FD0E94DF
:1048E0000023CF70C093E900CF91089580E8F1CF05
:1048F00097FB072E16F4009407D077FD09D00E948D
:10490000922407FC05D03EF4909581959F4F089521
:10491000709561957F4F0895EE0FFF1F0590F491FC
:10492000E02D0994AA1BBB1B51E107C0AA1FBB1FA6
:10493000A617B70710F0A61BB70B881F991F5A952B
:10494000A9F780959095BC01CD010895F999FECF06
:1049500092BD81BDF89A992780B50895A8E1B0E08D
:1049600042E050E00C94DA24262FF999FECF92BD54
:1049700081BDF89A019700B4021639F01FBA20BD24
:104980000FB6F894FA9AF99A0FBE08950396272F56
:104990000E94B5240E94B424252F0E94B524242F00
:1049A0000C94B5240196272F0E94B5240C94B424AE
:1049B000DC01CB01FC01F999FECF06C0F2BDE1BDDF
:1049C000F89A319600B40D9241505040B8F70895CE
:0449D000F894FFCF89
:1049D400014601004701044701C0012808140A32B6
:1049E4001E751D141EE91DB31D781D01F6F7313324
:1049F400323697C634350000000001020304050670
:044A04000708090096
:00000001FF
